{
  "_format": "hh-sol-artifact-1",
  "contractName": "EscrowWallet",
  "sourceName": "contracts/EscrowWallet.sol",
  "abi": [
    {
      "inputs": [],
      "stateMutability": "nonpayable",
      "type": "constructor"
    },
    {
      "inputs": [
        {
          "internalType": "address",
          "name": "",
          "type": "address"
        }
      ],
      "name": "balances",
      "outputs": [
        {
          "internalType": "uint256",
          "name": "",
          "type": "uint256"
        }
      ],
      "stateMutability": "view",
      "type": "function"
    },
    {
      "inputs": [
        {
          "internalType": "address",
          "name": "_token",
          "type": "address"
        },
        {
          "internalType": "uint256",
          "name": "_amount",
          "type": "uint256"
        }
      ],
      "name": "deposit",
      "outputs": [],
      "stateMutability": "payable",
      "type": "function"
    },
    {
      "inputs": [
        {
          "internalType": "address",
          "name": "_token",
          "type": "address"
        }
      ],
      "name": "getBalance",
      "outputs": [
        {
          "internalType": "uint256",
          "name": "",
          "type": "uint256"
        }
      ],
      "stateMutability": "view",
      "type": "function"
    },
    {
      "inputs": [],
      "name": "jobTokenContract",
      "outputs": [
        {
          "internalType": "address",
          "name": "",
          "type": "address"
        }
      ],
      "stateMutability": "view",
      "type": "function"
    },
    {
      "inputs": [],
      "name": "owner",
      "outputs": [
        {
          "internalType": "address",
          "name": "",
          "type": "address"
        }
      ],
      "stateMutability": "view",
      "type": "function"
    },
    {
      "inputs": [
        {
          "internalType": "address",
          "name": "_token",
          "type": "address"
        },
        {
          "internalType": "address",
          "name": "_to",
          "type": "address"
        },
        {
          "internalType": "uint256",
          "name": "_amount",
          "type": "uint256"
        }
      ],
      "name": "refund",
      "outputs": [],
      "stateMutability": "nonpayable",
      "type": "function"
    },
    {
      "inputs": [
        {
          "internalType": "address",
          "name": "_token",
          "type": "address"
        },
        {
          "internalType": "address",
          "name": "_to",
          "type": "address"
        },
        {
          "internalType": "uint256",
          "name": "_amount",
          "type": "uint256"
        }
      ],
      "name": "release",
      "outputs": [],
      "stateMutability": "nonpayable",
      "type": "function"
    },
    {
      "inputs": [
        {
          "internalType": "address",
          "name": "_jobTokenContract",
          "type": "address"
        }
      ],
      "name": "setJobTokenContract",
      "outputs": [],
      "stateMutability": "nonpayable",
      "type": "function"
    },
    {
      "stateMutability": "payable",
      "type": "receive"
    }
  ],
  "bytecode": "0x608060405234801561001057600080fd5b50600180546001600160a01b0319163317905561062b806100326000396000f3fe60806040526004361061007f5760003560e01c80638da5cb5b1161004e5780638da5cb5b14610141578063c798273d14610179578063d188fdf014610199578063f8b2cb4f146101b957600080fd5b806327e235e3146100cc57806347e7ef241461010c57806382ad6f35146101215780638bfb07c91461012157600080fd5b366100c757600080805260026020527fac33ff75c19e70fe83507db0d683fd3465c996598dc972688b7ace676c89077b80543492906100bf908490610525565b925050819055005b600080fd5b3480156100d857600080fd5b506100f96100e736600461055a565b60026020526000908152604090205481565b6040519081526020015b60405180910390f35b61011f61011a36600461057c565b6101ef565b005b34801561012d57600080fd5b5061011f61013c3660046105a6565b6102bb565b34801561014d57600080fd5b50600154610161906001600160a01b031681565b6040516001600160a01b039091168152602001610103565b34801561018557600080fd5b5061011f61019436600461055a565b61044b565b3480156101a557600080fd5b50600054610161906001600160a01b031681565b3480156101c557600080fd5b506100f96101d436600461055a565b6001600160a01b031660009081526002602052604090205490565b6001600160a01b038216610289578034146102435760405162461bcd60e51b815260206004820152600f60248201526e082dadeeadce840dad2e6dac2e8c6d608b1b60448201526064015b60405180910390fd5b600080805260026020527fac33ff75c19e70fe83507db0d683fd3465c996598dc972688b7ace676c89077b805483929061027e908490610525565b909155506102b79050565b6001600160a01b038216600090815260026020526040812080548392906102b1908490610525565b90915550505b5050565b6000546001600160a01b031633146103155760405162461bcd60e51b815260206004820152601b60248201527f4f6e6c79204a6f62546f6b656e2063616e2063616c6c20746869730000000000604482015260640161023a565b6001600160a01b0383166000908152600260205260409020548111156103745760405162461bcd60e51b8152602060048201526014602482015273496e73756666696369656e742062616c616e636560601b604482015260640161023a565b6001600160a01b0383166000908152600260205260408120805483929061039c9084906105e2565b90915550506001600160a01b038316610446576000826001600160a01b03168260405160006040518083038185875af1925050503d80600081146103fc576040519150601f19603f3d011682016040523d82523d6000602084013e610401565b606091505b50509050806104445760405162461bcd60e51b815260206004820152600f60248201526e151c985b9cd9995c8819985a5b1959608a1b604482015260640161023a565b505b505050565b6001546001600160a01b031633146104a55760405162461bcd60e51b815260206004820152601860248201527f4f6e6c79206f776e65722063616e2063616c6c20746869730000000000000000604482015260640161023a565b6001600160a01b0381166104ed5760405162461bcd60e51b815260206004820152600f60248201526e496e76616c6964206164647265737360881b604482015260640161023a565b600080546001600160a01b0319166001600160a01b0392909216919091179055565b634e487b7160e01b600052601160045260246000fd5b808201808211156105385761053861050f565b92915050565b80356001600160a01b038116811461055557600080fd5b919050565b60006020828403121561056c57600080fd5b6105758261053e565b9392505050565b6000806040838503121561058f57600080fd5b6105988361053e565b946020939093013593505050565b6000806000606084860312156105bb57600080fd5b6105c48461053e565b92506105d26020850161053e565b9150604084013590509250925092565b818103818111156105385761053861050f56fea2646970667358221220ebc15d046b4ccc84e4402c15777cd3b543d826952d9b016b6fc9dad2d389ec4764736f6c63430008180033",
  "linkReferences": {},
  "deployedLinkReferences": {}
}