{
  "_format": "hh-sol-artifact-1",
  "contractName": "JobListingToken",
  "sourceName": "contracts/JobListingToken.sol",
  "abi": [
    {
      "inputs": [],
      "stateMutability": "nonpayable",
      "type": "constructor"
    },
    {
      "anonymous": false,
      "inputs": [
        {
          "indexed": true,
          "internalType": "uint256",
          "name": "jobId",
          "type": "uint256"
        },
        {
          "indexed": true,
          "internalType": "uint256",
          "name": "applicationIndex",
          "type": "uint256"
        },
        {
          "indexed": true,
          "internalType": "address",
          "name": "freelancerAddress",
          "type": "address"
        }
      ],
      "name": "ApplicationApproved",
      "type": "event"
    },
    {
      "anonymous": false,
      "inputs": [
        {
          "indexed": true,
          "internalType": "uint256",
          "name": "jobId",
          "type": "uint256"
        },
        {
          "indexed": true,
          "internalType": "address",
          "name": "freelancerAddress",
          "type": "address"
        },
        {
          "indexed": false,
          "internalType": "uint256",
          "name": "proposedPrice",
          "type": "uint256"
        },
        {
          "indexed": false,
          "internalType": "uint256",
          "name": "applicationIndex",
          "type": "uint256"
        }
      ],
      "name": "ApplicationSubmitted",
      "type": "event"
    },
    {
      "anonymous": false,
      "inputs": [
        {
          "indexed": true,
          "internalType": "uint256",
          "name": "jobId",
          "type": "uint256"
        },
        {
          "indexed": true,
          "internalType": "address",
          "name": "clientAddress",
          "type": "address"
        },
        {
          "indexed": false,
          "internalType": "string",
          "name": "title",
          "type": "string"
        },
        {
          "indexed": false,
          "internalType": "uint256",
          "name": "deadline",
          "type": "uint256"
        }
      ],
      "name": "JobListingCreated",
      "type": "event"
    },
    {
      "inputs": [
        {
          "internalType": "uint256",
          "name": "_jobId",
          "type": "uint256"
        },
        {
          "internalType": "uint256",
          "name": "_proposedPrice",
          "type": "uint256"
        },
        {
          "internalType": "uint256",
          "name": "_cancellationTimeDays",
          "type": "uint256"
        },
        {
          "internalType": "string",
          "name": "_estimatedDelivery",
          "type": "string"
        },
        {
          "internalType": "string",
          "name": "_portfolioLink",
          "type": "string"
        }
      ],
      "name": "applyForJob",
      "outputs": [],
      "stateMutability": "nonpayable",
      "type": "function"
    },
    {
      "inputs": [
        {
          "internalType": "uint256",
          "name": "_jobId",
          "type": "uint256"
        },
        {
          "internalType": "uint256",
          "name": "_applicationIndex",
          "type": "uint256"
        }
      ],
      "name": "approveApplication",
      "outputs": [],
      "stateMutability": "nonpayable",
      "type": "function"
    },
    {
      "inputs": [
        {
          "internalType": "string",
          "name": "_title",
          "type": "string"
        },
        {
          "internalType": "string",
          "name": "_description",
          "type": "string"
        },
        {
          "internalType": "string",
          "name": "_jobType",
          "type": "string"
        },
        {
          "internalType": "uint256",
          "name": "_deadline",
          "type": "uint256"
        },
        {
          "internalType": "uint256",
          "name": "_minPrice",
          "type": "uint256"
        },
        {
          "internalType": "uint256",
          "name": "_maxPrice",
          "type": "uint256"
        }
      ],
      "name": "createJobListing",
      "outputs": [
        {
          "internalType": "uint256",
          "name": "",
          "type": "uint256"
        }
      ],
      "stateMutability": "nonpayable",
      "type": "function"
    },
    {
      "inputs": [
        {
          "internalType": "uint256",
          "name": "_jobId",
          "type": "uint256"
        }
      ],
      "name": "deactivateJob",
      "outputs": [],
      "stateMutability": "nonpayable",
      "type": "function"
    },
    {
      "inputs": [],
      "name": "getActiveJobs",
      "outputs": [
        {
          "components": [
            {
              "internalType": "uint256",
              "name": "jobId",
              "type": "uint256"
            },
            {
              "internalType": "string",
              "name": "title",
              "type": "string"
            },
            {
              "internalType": "string",
              "name": "description",
              "type": "string"
            },
            {
              "internalType": "string",
              "name": "jobType",
              "type": "string"
            },
            {
              "internalType": "uint256",
              "name": "deadline",
              "type": "uint256"
            },
            {
              "internalType": "uint256",
              "name": "minPrice",
              "type": "uint256"
            },
            {
              "internalType": "uint256",
              "name": "maxPrice",
              "type": "uint256"
            },
            {
              "internalType": "address",
              "name": "clientAddress",
              "type": "address"
            },
            {
              "internalType": "uint256",
              "name": "createdAt",
              "type": "uint256"
            },
            {
              "internalType": "bool",
              "name": "isActive",
              "type": "bool"
            }
          ],
          "internalType": "struct JobListingToken.JobListingData[]",
          "name": "",
          "type": "tuple[]"
        }
      ],
      "stateMutability": "view",
      "type": "function"
    },
    {
      "inputs": [],
      "name": "getAllJobs",
      "outputs": [
        {
          "components": [
            {
              "internalType": "uint256",
              "name": "jobId",
              "type": "uint256"
            },
            {
              "internalType": "string",
              "name": "title",
              "type": "string"
            },
            {
              "internalType": "string",
              "name": "description",
              "type": "string"
            },
            {
              "internalType": "string",
              "name": "jobType",
              "type": "string"
            },
            {
              "internalType": "uint256",
              "name": "deadline",
              "type": "uint256"
            },
            {
              "internalType": "uint256",
              "name": "minPrice",
              "type": "uint256"
            },
            {
              "internalType": "uint256",
              "name": "maxPrice",
              "type": "uint256"
            },
            {
              "internalType": "address",
              "name": "clientAddress",
              "type": "address"
            },
            {
              "internalType": "uint256",
              "name": "createdAt",
              "type": "uint256"
            },
            {
              "internalType": "bool",
              "name": "isActive",
              "type": "bool"
            }
          ],
          "internalType": "struct JobListingToken.JobListingData[]",
          "name": "",
          "type": "tuple[]"
        }
      ],
      "stateMutability": "view",
      "type": "function"
    },
    {
      "inputs": [
        {
          "internalType": "uint256",
          "name": "_jobId",
          "type": "uint256"
        }
      ],
      "name": "getApplicationCount",
      "outputs": [
        {
          "internalType": "uint256",
          "name": "",
          "type": "uint256"
        }
      ],
      "stateMutability": "view",
      "type": "function"
    },
    {
      "inputs": [],
      "name": "getApplications",
      "outputs": [
        {
          "components": [
            {
              "internalType": "address",
              "name": "freelancerAddress",
              "type": "address"
            },
            {
              "internalType": "uint256",
              "name": "proposedPrice",
              "type": "uint256"
            },
            {
              "internalType": "uint256",
              "name": "cancellationTimeDays",
              "type": "uint256"
            },
            {
              "internalType": "string",
              "name": "estimatedDelivery",
              "type": "string"
            },
            {
              "internalType": "string",
              "name": "portfolioLink",
              "type": "string"
            },
            {
              "internalType": "uint256",
              "name": "appliedAt",
              "type": "uint256"
            },
            {
              "internalType": "bool",
              "name": "isApproved",
              "type": "bool"
            }
          ],
          "internalType": "struct JobListingToken.Application[]",
          "name": "",
          "type": "tuple[]"
        }
      ],
      "stateMutability": "view",
      "type": "function"
    },
    {
      "inputs": [
        {
          "internalType": "uint256",
          "name": "_jobId",
          "type": "uint256"
        }
      ],
      "name": "getJob",
      "outputs": [
        {
          "components": [
            {
              "internalType": "uint256",
              "name": "jobId",
              "type": "uint256"
            },
            {
              "internalType": "string",
              "name": "title",
              "type": "string"
            },
            {
              "internalType": "string",
              "name": "description",
              "type": "string"
            },
            {
              "internalType": "string",
              "name": "jobType",
              "type": "string"
            },
            {
              "internalType": "uint256",
              "name": "deadline",
              "type": "uint256"
            },
            {
              "internalType": "uint256",
              "name": "minPrice",
              "type": "uint256"
            },
            {
              "internalType": "uint256",
              "name": "maxPrice",
              "type": "uint256"
            },
            {
              "internalType": "address",
              "name": "clientAddress",
              "type": "address"
            },
            {
              "internalType": "uint256",
              "name": "createdAt",
              "type": "uint256"
            },
            {
              "internalType": "bool",
              "name": "isActive",
              "type": "bool"
            }
          ],
          "internalType": "struct JobListingToken.JobListingData",
          "name": "",
          "type": "tuple"
        }
      ],
      "stateMutability": "view",
      "type": "function"
    },
    {
      "inputs": [
        {
          "internalType": "uint256",
          "name": "_jobId",
          "type": "uint256"
        }
      ],
      "name": "getJobApplications",
      "outputs": [
        {
          "components": [
            {
              "internalType": "address",
              "name": "freelancerAddress",
              "type": "address"
            },
            {
              "internalType": "uint256",
              "name": "proposedPrice",
              "type": "uint256"
            },
            {
              "internalType": "uint256",
              "name": "cancellationTimeDays",
              "type": "uint256"
            },
            {
              "internalType": "string",
              "name": "estimatedDelivery",
              "type": "string"
            },
            {
              "internalType": "string",
              "name": "portfolioLink",
              "type": "string"
            },
            {
              "internalType": "uint256",
              "name": "appliedAt",
              "type": "uint256"
            },
            {
              "internalType": "bool",
              "name": "isApproved",
              "type": "bool"
            }
          ],
          "internalType": "struct JobListingToken.Application[]",
          "name": "",
          "type": "tuple[]"
        }
      ],
      "stateMutability": "view",
      "type": "function"
    },
    {
      "inputs": [],
      "name": "getJobData",
      "outputs": [
        {
          "components": [
            {
              "internalType": "uint256",
              "name": "jobId",
              "type": "uint256"
            },
            {
              "internalType": "string",
              "name": "title",
              "type": "string"
            },
            {
              "internalType": "string",
              "name": "description",
              "type": "string"
            },
            {
              "internalType": "string",
              "name": "jobType",
              "type": "string"
            },
            {
              "internalType": "uint256",
              "name": "deadline",
              "type": "uint256"
            },
            {
              "internalType": "uint256",
              "name": "minPrice",
              "type": "uint256"
            },
            {
              "internalType": "uint256",
              "name": "maxPrice",
              "type": "uint256"
            },
            {
              "internalType": "address",
              "name": "clientAddress",
              "type": "address"
            },
            {
              "internalType": "uint256",
              "name": "createdAt",
              "type": "uint256"
            },
            {
              "internalType": "bool",
              "name": "isActive",
              "type": "bool"
            }
          ],
          "internalType": "struct JobListingToken.JobListingData",
          "name": "",
          "type": "tuple"
        }
      ],
      "stateMutability": "view",
      "type": "function"
    },
    {
      "inputs": [
        {
          "internalType": "uint256",
          "name": "_jobId",
          "type": "uint256"
        }
      ],
      "name": "getJobToken",
      "outputs": [
        {
          "internalType": "address",
          "name": "",
          "type": "address"
        }
      ],
      "stateMutability": "view",
      "type": "function"
    },
    {
      "inputs": [
        {
          "internalType": "uint256",
          "name": "",
          "type": "uint256"
        },
        {
          "internalType": "uint256",
          "name": "",
          "type": "uint256"
        }
      ],
      "name": "jobApplications",
      "outputs": [
        {
          "internalType": "address",
          "name": "freelancerAddress",
          "type": "address"
        },
        {
          "internalType": "uint256",
          "name": "proposedPrice",
          "type": "uint256"
        },
        {
          "internalType": "uint256",
          "name": "cancellationTimeDays",
          "type": "uint256"
        },
        {
          "internalType": "string",
          "name": "estimatedDelivery",
          "type": "string"
        },
        {
          "internalType": "string",
          "name": "portfolioLink",
          "type": "string"
        },
        {
          "internalType": "uint256",
          "name": "appliedAt",
          "type": "uint256"
        },
        {
          "internalType": "bool",
          "name": "isApproved",
          "type": "bool"
        }
      ],
      "stateMutability": "view",
      "type": "function"
    },
    {
      "inputs": [],
      "name": "jobCount",
      "outputs": [
        {
          "internalType": "uint256",
          "name": "",
          "type": "uint256"
        }
      ],
      "stateMutability": "view",
      "type": "function"
    },
    {
      "inputs": [
        {
          "internalType": "uint256",
          "name": "",
          "type": "uint256"
        }
      ],
      "name": "jobTokens",
      "outputs": [
        {
          "internalType": "address",
          "name": "",
          "type": "address"
        }
      ],
      "stateMutability": "view",
      "type": "function"
    },
    {
      "inputs": [
        {
          "internalType": "uint256",
          "name": "",
          "type": "uint256"
        }
      ],
      "name": "jobs",
      "outputs": [
        {
          "internalType": "uint256",
          "name": "jobId",
          "type": "uint256"
        },
        {
          "internalType": "string",
          "name": "title",
          "type": "string"
        },
        {
          "internalType": "string",
          "name": "description",
          "type": "string"
        },
        {
          "internalType": "string",
          "name": "jobType",
          "type": "string"
        },
        {
          "internalType": "uint256",
          "name": "deadline",
          "type": "uint256"
        },
        {
          "internalType": "uint256",
          "name": "minPrice",
          "type": "uint256"
        },
        {
          "internalType": "uint256",
          "name": "maxPrice",
          "type": "uint256"
        },
        {
          "internalType": "address",
          "name": "clientAddress",
          "type": "address"
        },
        {
          "internalType": "uint256",
          "name": "createdAt",
          "type": "uint256"
        },
        {
          "internalType": "bool",
          "name": "isActive",
          "type": "bool"
        }
      ],
      "stateMutability": "view",
      "type": "function"
    },
    {
      "inputs": [],
      "name": "owner",
      "outputs": [
        {
          "internalType": "address",
          "name": "",
          "type": "address"
        }
      ],
      "stateMutability": "view",
      "type": "function"
    },
    {
      "inputs": [
        {
          "internalType": "uint256",
          "name": "_jobId",
          "type": "uint256"
        },
        {
          "internalType": "address",
          "name": "_jobTokenAddress",
          "type": "address"
        }
      ],
      "name": "setJobToken",
      "outputs": [],
      "stateMutability": "nonpayable",
      "type": "function"
    }
  ],
  "bytecode": "0x608060405234801561001057600080fd5b50600480546001600160a01b0319163317905560006003556127b8806100376000396000f3fe608060405234801561001057600080fd5b50600436106101165760003560e01c80638da5cb5b116100a2578063bf22c45711610071578063bf22c4571461024a578063c55677571461025d578063d3913b8614610286578063ead39a1114610299578063fadd2b69146102bf57600080fd5b80638da5cb5b14610209578063914640441461021c578063965a79fb1461022f578063af24ee1b1461023757600080fd5b806343900e78116100e957806343900e78146101a25780634633f488146101b75780634c5d8a0f146101ca57806355cdd9e1146101e1578063747143b9146101f657600080fd5b8063180aedf31461011b578063353d65d61461014d578063366d2a4b1461017857806337597cb51461018d575b600080fd5b61012e610129366004612034565b6102d2565b6040516101449a99989796959493929190612093565b60405180910390f35b61016061015b366004612034565b6104c6565b6040516001600160a01b039091168152602001610144565b61018b610186366004612034565b61050e565b005b6101956105b3565b60405161014491906121c7565b6101aa61090d565b604051610144919061222b565b61018b6101c53660046122f6565b610b47565b6101d360035481565b604051908152602001610144565b6101e9610d6b565b6040516101449190612318565b6101aa610204366004612034565b61101e565b600454610160906001600160a01b031681565b61018b61022a366004612332565b611215565b610195611335565b6101d3610245366004612411565b6115ed565b6101e9610258366004612034565b611896565b61016061026b366004612034565b6002602052600090815260409020546001600160a01b031681565b61018b6102943660046124b5565b611ae8565b6102ac6102a73660046122f6565b611e26565b6040516101449796959493929190612536565b6101d36102cd366004612034565b611fa0565b600060208190529081526040902080546001820180549192916102f490612591565b80601f016020809104026020016040519081016040528092919081815260200182805461032090612591565b801561036d5780601f106103425761010080835404028352916020019161036d565b820191906000526020600020905b81548152906001019060200180831161035057829003601f168201915b50505050509080600201805461038290612591565b80601f01602080910402602001604051908101604052809291908181526020018280546103ae90612591565b80156103fb5780601f106103d0576101008083540402835291602001916103fb565b820191906000526020600020905b8154815290600101906020018083116103de57829003601f168201915b50505050509080600301805461041090612591565b80601f016020809104026020016040519081016040528092919081815260200182805461043c90612591565b80156104895780601f1061045e57610100808354040283529160200191610489565b820191906000526020600020905b81548152906001019060200180831161046c57829003601f168201915b50505060048401546005850154600686015460078701546008880154600990980154969793969295509093506001600160a01b0316919060ff168a565b600060035482106104f25760405162461bcd60e51b81526004016104e9906125c5565b60405180910390fd5b506000908152600260205260409020546001600160a01b031690565b600354811061052f5760405162461bcd60e51b81526004016104e9906125c5565b6000818152602081905260409020600701546001600160a01b031633146105985760405162461bcd60e51b815260206004820152601f60248201527f4f6e6c79206a6f622063726561746f722063616e20646561637469766174650060448201526064016104e9565b6000908152602081905260409020600901805460ff19169055565b60606000805b60035481101561060f5760008181526020819052604090206009015460ff1680156105f4575060008181526020819052604090206004015442105b15610607578161060381612607565b9250505b6001016105b9565b5060008167ffffffffffffffff81111561062b5761062b61236e565b60405190808252806020026020018201604052801561066457816020015b610651611fd6565b8152602001906001900390816106495790505b5090506000805b6003548110156109045760008181526020819052604090206009015460ff1680156106a6575060008181526020819052604090206004015442105b156108fc5760008181526020818152604091829020825161014081019093528054835260018101805491928401916106dd90612591565b80601f016020809104026020016040519081016040528092919081815260200182805461070990612591565b80156107565780601f1061072b57610100808354040283529160200191610756565b820191906000526020600020905b81548152906001019060200180831161073957829003601f168201915b5050505050815260200160028201805461076f90612591565b80601f016020809104026020016040519081016040528092919081815260200182805461079b90612591565b80156107e85780601f106107bd576101008083540402835291602001916107e8565b820191906000526020600020905b8154815290600101906020018083116107cb57829003601f168201915b5050505050815260200160038201805461080190612591565b80601f016020809104026020016040519081016040528092919081815260200182805461082d90612591565b801561087a5780601f1061084f5761010080835404028352916020019161087a565b820191906000526020600020905b81548152906001019060200180831161085d57829003601f168201915b505050918352505060048201546020820152600582015460408201526006820154606082015260078201546001600160a01b03166080820152600882015460a082015260099091015460ff16151560c09091015283518490849081106108e2576108e2612620565b602002602001018190525081806108f890612607565b9250505b60010161066b565b50909392505050565b60606000600354116109555760405162461bcd60e51b81526020600482015260116024820152704e6f206a6f627320617661696c61626c6560781b60448201526064016104e9565b6000808052600160209081527fa6eef7e35abe7026729641147f7915573c7e97b47efa546f5f6e3230263bcb498054604080518285028101850190915281815293919290919084015b82821015610b3e5760008481526020908190206040805160e0810182526007860290920180546001600160a01b031683526001810154938301939093526002830154908201526003820180549192916060840191906109fc90612591565b80601f0160208091040260200160405190810160405280929190818152602001828054610a2890612591565b8015610a755780601f10610a4a57610100808354040283529160200191610a75565b820191906000526020600020905b815481529060010190602001808311610a5857829003601f168201915b50505050508152602001600482018054610a8e90612591565b80601f0160208091040260200160405190810160405280929190818152602001828054610aba90612591565b8015610b075780601f10610adc57610100808354040283529160200191610b07565b820191906000526020600020905b815481529060010190602001808311610aea57829003601f168201915b5050509183525050600582015460208083019190915260069092015460ff161515604090910152908252600192909201910161099e565b50505050905090565b6003548210610b685760405162461bcd60e51b81526004016104e9906125c5565b6000828152602081905260409020600701546001600160a01b03163314610bd15760405162461bcd60e51b815260206004820152601c60248201527f4f6e6c79206a6f622063726561746f722063616e20617070726f76650000000060448201526064016104e9565b6000828152600160205260409020548110610c2e5760405162461bcd60e51b815260206004820152601a60248201527f4170706c69636174696f6e20646f6573206e6f7420657869737400000000000060448201526064016104e9565b6000828152600160205260409020805482908110610c4e57610c4e612620565b600091825260209091206006600790920201015460ff1615610cb25760405162461bcd60e51b815260206004820152601c60248201527f4170706c69636174696f6e20616c726561647920617070726f7665640000000060448201526064016104e9565b6000828152600160208190526040909120805483908110610cd557610cd5612620565b906000526020600020906007020160060160006101000a81548160ff021916908315150217905550600160008381526020019081526020016000208181548110610d2157610d21612620565b600091825260208220600790910201546040516001600160a01b0390911691839185917f3d2e0693b8e181cfefbbbca8bbacf348ab5813516ca1ec12ef15710f48dd31bb91a45050565b610d73611fd6565b600060035411610db95760405162461bcd60e51b81526020600482015260116024820152704e6f206a6f627320617661696c61626c6560781b60448201526064016104e9565b600080805260209081526040805161014081019091527fad3228b676f7d3cd4284a5443f17f1962b36e491b30a40b2405849e597ba5fb5805482527fad3228b676f7d3cd4284a5443f17f1962b36e491b30a40b2405849e597ba5fb680549293919291840191610e2890612591565b80601f0160208091040260200160405190810160405280929190818152602001828054610e5490612591565b8015610ea15780601f10610e7657610100808354040283529160200191610ea1565b820191906000526020600020905b815481529060010190602001808311610e8457829003601f168201915b50505050508152602001600282018054610eba90612591565b80601f0160208091040260200160405190810160405280929190818152602001828054610ee690612591565b8015610f335780601f10610f0857610100808354040283529160200191610f33565b820191906000526020600020905b815481529060010190602001808311610f1657829003601f168201915b50505050508152602001600382018054610f4c90612591565b80601f0160208091040260200160405190810160405280929190818152602001828054610f7890612591565b8015610fc55780601f10610f9a57610100808354040283529160200191610fc5565b820191906000526020600020905b815481529060010190602001808311610fa857829003601f168201915b505050918352505060048201546020820152600582015460408201526006820154606082015260078201546001600160a01b03166080820152600882015460a082015260099091015460ff16151560c090910152919050565b606060035482106110415760405162461bcd60e51b81526004016104e9906125c5565b600082815260016020908152604080832080548251818502810185019093528083529193909284015b8282101561120a5760008481526020908190206040805160e0810182526007860290920180546001600160a01b031683526001810154938301939093526002830154908201526003820180549192916060840191906110c890612591565b80601f01602080910402602001604051908101604052809291908181526020018280546110f490612591565b80156111415780601f1061111657610100808354040283529160200191611141565b820191906000526020600020905b81548152906001019060200180831161112457829003601f168201915b5050505050815260200160048201805461115a90612591565b80601f016020809104026020016040519081016040528092919081815260200182805461118690612591565b80156111d35780601f106111a8576101008083540402835291602001916111d3565b820191906000526020600020905b8154815290600101906020018083116111b657829003601f168201915b5050509183525050600582015460208083019190915260069092015460ff161515604090910152908252600192909201910161106a565b505050509050919050565b60035482106112365760405162461bcd60e51b81526004016104e9906125c5565b6000828152602081905260409020600701546001600160a01b031633146112aa5760405162461bcd60e51b815260206004820152602260248201527f4f6e6c79206a6f622063726561746f722063616e20736574206a6f6220746f6b60448201526132b760f11b60648201526084016104e9565b6000828152600260205260409020546001600160a01b0316156113075760405162461bcd60e51b8152602060048201526015602482015274129bd8881d1bdad95b88185b1c9958591e481cd95d605a1b60448201526064016104e9565b60009182526002602052604090912080546001600160a01b0319166001600160a01b03909216919091179055565b6060600060035467ffffffffffffffff8111156113545761135461236e565b60405190808252806020026020018201604052801561138d57816020015b61137a611fd6565b8152602001906001900390816113725790505b50905060005b6003548110156115e75760008181526020818152604091829020825161014081019093528054835260018101805491928401916113cf90612591565b80601f01602080910402602001604051908101604052809291908181526020018280546113fb90612591565b80156114485780601f1061141d57610100808354040283529160200191611448565b820191906000526020600020905b81548152906001019060200180831161142b57829003601f168201915b5050505050815260200160028201805461146190612591565b80601f016020809104026020016040519081016040528092919081815260200182805461148d90612591565b80156114da5780601f106114af576101008083540402835291602001916114da565b820191906000526020600020905b8154815290600101906020018083116114bd57829003601f168201915b505050505081526020016003820180546114f390612591565b80601f016020809104026020016040519081016040528092919081815260200182805461151f90612591565b801561156c5780601f106115415761010080835404028352916020019161156c565b820191906000526020600020905b81548152906001019060200180831161154f57829003601f168201915b505050918352505060048201546020820152600582015460408201526006820154606082015260078201546001600160a01b03166080820152600882015460a082015260099091015460ff16151560c09091015282518390839081106115d4576115d4612620565b6020908102919091010152600101611393565b50919050565b6000808751116116375760405162461bcd60e51b81526020600482015260156024820152745469746c652063616e6e6f7420626520656d70747960581b60448201526064016104e9565b4284116116865760405162461bcd60e51b815260206004820152601e60248201527f446561646c696e65206d75737420626520696e2074686520667574757265000060448201526064016104e9565b600083116116d65760405162461bcd60e51b815260206004820181905260248201527f4d696e207072696365206d7573742062652067726561746572207468616e203060448201526064016104e9565b828210156117265760405162461bcd60e51b815260206004820152601e60248201527f4d6178207072696365206d757374206265203e3d206d696e207072696365000060448201526064016104e9565b600354604080516101408101825282815260208082018b81528284018b9052606083018a90526080830189905260a0830188905260c083018790523360e0840152426101008401526001610120840181905260008681529283905293909120825181559051919290919082019061179d9082612687565b50604082015160028201906117b29082612687565b50606082015160038201906117c79082612687565b506080820151600482015560a0820151600582015560c0820151600682015560e08201516007820180546001600160a01b0319166001600160a01b039092169190911790556101008201516008820155610120909101516009909101805460ff19169115159190911790556003805490600061184283612607565b9190505550336001600160a01b0316817f4f32bdb20e119bd9748395859e6b2355239651d7ca28e3b5fcccb3205a99dc918a88604051611883929190612747565b60405180910390a3979650505050505050565b61189e611fd6565b60035482106118bf5760405162461bcd60e51b81526004016104e9906125c5565b60008281526020818152604091829020825161014081019093528054835260018101805491928401916118f190612591565b80601f016020809104026020016040519081016040528092919081815260200182805461191d90612591565b801561196a5780601f1061193f5761010080835404028352916020019161196a565b820191906000526020600020905b81548152906001019060200180831161194d57829003601f168201915b5050505050815260200160028201805461198390612591565b80601f01602080910402602001604051908101604052809291908181526020018280546119af90612591565b80156119fc5780601f106119d1576101008083540402835291602001916119fc565b820191906000526020600020905b8154815290600101906020018083116119df57829003601f168201915b50505050508152602001600382018054611a1590612591565b80601f0160208091040260200160405190810160405280929190818152602001828054611a4190612591565b8015611a8e5780601f10611a6357610100808354040283529160200191611a8e565b820191906000526020600020905b815481529060010190602001808311611a7157829003601f168201915b505050918352505060048201546020820152600582015460408201526006820154606082015260078201546001600160a01b03166080820152600882015460a082015260099091015460ff16151560c09091015292915050565b6003548510611b095760405162461bcd60e51b81526004016104e9906125c5565b60008581526020819052604090206009015460ff16611b5e5760405162461bcd60e51b81526020600482015260116024820152704a6f62206973206e6f742061637469766560781b60448201526064016104e9565b60008581526020819052604081206001018054611b7a90612591565b905011611bc95760405162461bcd60e51b815260206004820152601a60248201527f4a6f62206c697374696e6720646f6573206e6f7420657869737400000000000060448201526064016104e9565b6000858152602081905260409020600501548410801590611bfb57506000858152602081905260409020600601548411155b611c475760405162461bcd60e51b815260206004820152601a60248201527f5072696365206d7573742062652077697468696e2072616e676500000000000060448201526064016104e9565b60008311611ca25760405162461bcd60e51b815260206004820152602260248201527f43616e63656c6c6174696f6e2074696d65206d75737420626520706f73697469604482015261766560f01b60648201526084016104e9565b6000825111611cf35760405162461bcd60e51b815260206004820152601b60248201527f457374696d617465642064656c6976657279207265717569726564000000000060448201526064016104e9565b6000858152600160208181526040808420815160e0810183523381528084018a815292810189815260608201898152608083018990524260a084015260c083018890528354808801855593885294909620815160079093020180546001600160a01b0319166001600160a01b0390931692909217825591519381019390935592516002830155516003820190611d899082612687565b5060808201516004820190611d9e9082612687565b5060a0820151600582015560c0909101516006909101805460ff19169115159190911790556000858152600160208190526040822054611dde9190612769565b6040805187815260208101839052919250339188917fc2995a34b85b7a073c64bec2281799f70b766948ee79218351ab700b7cbc48e9910160405180910390a3505050505050565b60016020528160005260406000208181548110611e4257600080fd5b600091825260209091206007909102018054600182015460028301546003840180546001600160a01b0390941696509194509291611e7f90612591565b80601f0160208091040260200160405190810160405280929190818152602001828054611eab90612591565b8015611ef85780601f10611ecd57610100808354040283529160200191611ef8565b820191906000526020600020905b815481529060010190602001808311611edb57829003601f168201915b505050505090806004018054611f0d90612591565b80601f0160208091040260200160405190810160405280929190818152602001828054611f3990612591565b8015611f865780601f10611f5b57610100808354040283529160200191611f86565b820191906000526020600020905b815481529060010190602001808311611f6957829003601f168201915b50505050600583015460069093015491929160ff16905087565b60006003548210611fc35760405162461bcd60e51b81526004016104e9906125c5565b5060009081526001602052604090205490565b6040518061014001604052806000815260200160608152602001606081526020016060815260200160008152602001600081526020016000815260200160006001600160a01b03168152602001600081526020016000151581525090565b60006020828403121561204657600080fd5b5035919050565b6000815180845260005b8181101561207357602081850181015186830182015201612057565b506000602082860101526020601f19601f83011685010191505092915050565b60006101408c83528060208401526120ad8184018d61204d565b905082810360408401526120c1818c61204d565b905082810360608401526120d5818b61204d565b6080840199909952505060a081019590955260c08501939093526001600160a01b039190911660e0840152610100830152151561012090910152949350505050565b60006101408251845260208301518160208601526121378286018261204d565b91505060408301518482036040860152612151828261204d565b9150506060830151848203606086015261216b828261204d565b9150506080830151608085015260a083015160a085015260c083015160c085015260e08301516121a660e08601826001600160a01b03169052565b50610100838101519085015261012092830151151592909301919091525090565b600060208083016020845280855180835260408601915060408160051b87010192506020870160005b8281101561221e57603f1988860301845261220c858351612117565b945092850192908501906001016121f0565b5092979650505050505050565b600060208083018184528085518083526040925060408601915060408160051b87010184880160005b838110156122e857888303603f19018552815180516001600160a01b031684528781015188850152868101518785015260608082015160e082870181905291906122a08388018261204d565b92505050608080830151868303828801526122bb838261204d565b60a0858101519089015260c094850151151594909701939093525050509386019390860190600101612254565b509098975050505050505050565b6000806040838503121561230957600080fd5b50508035926020909101359150565b60208152600061232b6020830184612117565b9392505050565b6000806040838503121561234557600080fd5b8235915060208301356001600160a01b038116811461236357600080fd5b809150509250929050565b634e487b7160e01b600052604160045260246000fd5b600082601f83011261239557600080fd5b813567ffffffffffffffff808211156123b0576123b061236e565b604051601f8301601f19908116603f011681019082821181831017156123d8576123d861236e565b816040528381528660208588010111156123f157600080fd5b836020870160208301376000602085830101528094505050505092915050565b60008060008060008060c0878903121561242a57600080fd5b863567ffffffffffffffff8082111561244257600080fd5b61244e8a838b01612384565b9750602089013591508082111561246457600080fd5b6124708a838b01612384565b9650604089013591508082111561248657600080fd5b5061249389828a01612384565b945050606087013592506080870135915060a087013590509295509295509295565b600080600080600060a086880312156124cd57600080fd5b853594506020860135935060408601359250606086013567ffffffffffffffff808211156124fa57600080fd5b61250689838a01612384565b9350608088013591508082111561251c57600080fd5b5061252988828901612384565b9150509295509295909350565b60018060a01b038816815286602082015285604082015260e06060820152600061256360e083018761204d565b8281036080840152612575818761204d565b60a0840195909552505090151560c09091015295945050505050565b600181811c908216806125a557607f821691505b6020821081036115e757634e487b7160e01b600052602260045260246000fd5b602080825260129082015271129bd888191bd95cc81b9bdd08195e1a5cdd60721b604082015260600190565b634e487b7160e01b600052601160045260246000fd5b600060018201612619576126196125f1565b5060010190565b634e487b7160e01b600052603260045260246000fd5b601f821115612682576000816000526020600020601f850160051c8101602086101561265f5750805b601f850160051c820191505b8181101561267e5782815560010161266b565b5050505b505050565b815167ffffffffffffffff8111156126a1576126a161236e565b6126b5816126af8454612591565b84612636565b602080601f8311600181146126ea57600084156126d25750858301515b600019600386901b1c1916600185901b17855561267e565b600085815260208120601f198616915b82811015612719578886015182559484019460019091019084016126fa565b50858210156127375787850151600019600388901b60f8161c191681555b5050505050600190811b01905550565b60408152600061275a604083018561204d565b90508260208301529392505050565b8181038181111561277c5761277c6125f1565b9291505056fea2646970667358221220c46c25a975a063c721a2c3a71c8704506b164b8d6b6a23445de0abd363f7512f64736f6c63430008180033",
  "linkReferences": {},
  "deployedLinkReferences": {}
}