{
  "_format": "hh-sol-artifact-1",
  "contractName": "JobToken",
  "sourceName": "contracts/JobToken.sol",
  "abi": [
    {
      "inputs": [],
      "stateMutability": "nonpayable",
      "type": "constructor"
    },
    {
      "anonymous": false,
      "inputs": [
        {
          "indexed": true,
          "internalType": "uint256",
          "name": "checkpointIndex",
          "type": "uint256"
        },
        {
          "indexed": false,
          "internalType": "uint256",
          "name": "paymentReleased",
          "type": "uint256"
        }
      ],
      "name": "CheckpointApproved",
      "type": "event"
    },
    {
      "anonymous": false,
      "inputs": [
        {
          "indexed": true,
          "internalType": "uint256",
          "name": "checkpointIndex",
          "type": "uint256"
        }
      ],
      "name": "CheckpointRejected",
      "type": "event"
    },
    {
      "anonymous": false,
      "inputs": [
        {
          "indexed": true,
          "internalType": "uint256",
          "name": "checkpointIndex",
          "type": "uint256"
        },
        {
          "indexed": false,
          "internalType": "string",
          "name": "ipfsCID",
          "type": "string"
        }
      ],
      "name": "CheckpointSubmitted",
      "type": "event"
    },
    {
      "anonymous": false,
      "inputs": [
        {
          "indexed": true,
          "internalType": "address",
          "name": "clientAddress",
          "type": "address"
        },
        {
          "indexed": false,
          "internalType": "uint256",
          "name": "amount",
          "type": "uint256"
        }
      ],
      "name": "FundsDeposited",
      "type": "event"
    },
    {
      "anonymous": false,
      "inputs": [
        {
          "indexed": true,
          "internalType": "address",
          "name": "cancelledBy",
          "type": "address"
        },
        {
          "indexed": false,
          "internalType": "uint256",
          "name": "refundAmount",
          "type": "uint256"
        }
      ],
      "name": "JobCancelled",
      "type": "event"
    },
    {
      "anonymous": false,
      "inputs": [
        {
          "indexed": true,
          "internalType": "address",
          "name": "clientAddress",
          "type": "address"
        },
        {
          "indexed": true,
          "internalType": "address",
          "name": "freelancerAddress",
          "type": "address"
        },
        {
          "indexed": false,
          "internalType": "uint256",
          "name": "finalPrice",
          "type": "uint256"
        }
      ],
      "name": "JobInitialized",
      "type": "event"
    },
    {
      "inputs": [],
      "name": "approvalDate",
      "outputs": [
        {
          "internalType": "uint256",
          "name": "",
          "type": "uint256"
        }
      ],
      "stateMutability": "view",
      "type": "function"
    },
    {
      "inputs": [
        {
          "internalType": "uint256",
          "name": "_checkpointIndex",
          "type": "uint256"
        }
      ],
      "name": "approveCheckpoint",
      "outputs": [],
      "stateMutability": "nonpayable",
      "type": "function"
    },
    {
      "inputs": [],
      "name": "canCancel",
      "outputs": [
        {
          "internalType": "bool",
          "name": "",
          "type": "bool"
        }
      ],
      "stateMutability": "view",
      "type": "function"
    },
    {
      "inputs": [],
      "name": "cancelJob",
      "outputs": [],
      "stateMutability": "nonpayable",
      "type": "function"
    },
    {
      "inputs": [],
      "name": "cancellationDate",
      "outputs": [
        {
          "internalType": "uint256",
          "name": "",
          "type": "uint256"
        }
      ],
      "stateMutability": "view",
      "type": "function"
    },
    {
      "inputs": [],
      "name": "cancellationTimeDays",
      "outputs": [
        {
          "internalType": "uint256",
          "name": "",
          "type": "uint256"
        }
      ],
      "stateMutability": "view",
      "type": "function"
    },
    {
      "inputs": [
        {
          "internalType": "uint256",
          "name": "",
          "type": "uint256"
        }
      ],
      "name": "checkpointPayments",
      "outputs": [
        {
          "internalType": "uint256",
          "name": "",
          "type": "uint256"
        }
      ],
      "stateMutability": "view",
      "type": "function"
    },
    {
      "inputs": [
        {
          "internalType": "uint256",
          "name": "",
          "type": "uint256"
        }
      ],
      "name": "checkpoints",
      "outputs": [
        {
          "internalType": "bool",
          "name": "isCompleted",
          "type": "bool"
        },
        {
          "internalType": "bool",
          "name": "isApproved",
          "type": "bool"
        },
        {
          "internalType": "string",
          "name": "ipfsCID",
          "type": "string"
        },
        {
          "internalType": "uint256",
          "name": "submissionDate",
          "type": "uint256"
        },
        {
          "internalType": "uint256",
          "name": "approvalDate",
          "type": "uint256"
        }
      ],
      "stateMutability": "view",
      "type": "function"
    },
    {
      "inputs": [],
      "name": "clientAddress",
      "outputs": [
        {
          "internalType": "address",
          "name": "",
          "type": "address"
        }
      ],
      "stateMutability": "view",
      "type": "function"
    },
    {
      "inputs": [],
      "name": "depositToEscrow",
      "outputs": [],
      "stateMutability": "payable",
      "type": "function"
    },
    {
      "inputs": [],
      "name": "escrowWallet",
      "outputs": [
        {
          "internalType": "address payable",
          "name": "",
          "type": "address"
        }
      ],
      "stateMutability": "view",
      "type": "function"
    },
    {
      "inputs": [],
      "name": "estimatedDeliveryTimestamp",
      "outputs": [
        {
          "internalType": "uint256",
          "name": "",
          "type": "uint256"
        }
      ],
      "stateMutability": "view",
      "type": "function"
    },
    {
      "inputs": [],
      "name": "finalPrice",
      "outputs": [
        {
          "internalType": "uint256",
          "name": "",
          "type": "uint256"
        }
      ],
      "stateMutability": "view",
      "type": "function"
    },
    {
      "inputs": [],
      "name": "freelancerAddress",
      "outputs": [
        {
          "internalType": "address",
          "name": "",
          "type": "address"
        }
      ],
      "stateMutability": "view",
      "type": "function"
    },
    {
      "inputs": [
        {
          "internalType": "uint256",
          "name": "_checkpointIndex",
          "type": "uint256"
        }
      ],
      "name": "getCheckpoint",
      "outputs": [
        {
          "components": [
            {
              "internalType": "bool",
              "name": "isCompleted",
              "type": "bool"
            },
            {
              "internalType": "bool",
              "name": "isApproved",
              "type": "bool"
            },
            {
              "internalType": "string",
              "name": "ipfsCID",
              "type": "string"
            },
            {
              "internalType": "uint256",
              "name": "submissionDate",
              "type": "uint256"
            },
            {
              "internalType": "uint256",
              "name": "approvalDate",
              "type": "uint256"
            }
          ],
          "internalType": "struct JobToken.Checkpoint",
          "name": "",
          "type": "tuple"
        }
      ],
      "stateMutability": "view",
      "type": "function"
    },
    {
      "inputs": [],
      "name": "getJobStatus",
      "outputs": [
        {
          "internalType": "bool",
          "name": "_isCancelled",
          "type": "bool"
        },
        {
          "internalType": "uint256",
          "name": "_totalReleased",
          "type": "uint256"
        },
        {
          "internalType": "uint256",
          "name": "_remainingBalance",
          "type": "uint256"
        }
      ],
      "stateMutability": "view",
      "type": "function"
    },
    {
      "inputs": [
        {
          "internalType": "address",
          "name": "_clientAddress",
          "type": "address"
        },
        {
          "internalType": "address",
          "name": "_freelancerAddress",
          "type": "address"
        },
        {
          "internalType": "uint256",
          "name": "_finalPrice",
          "type": "uint256"
        },
        {
          "internalType": "uint256",
          "name": "_estimatedDeliveryTimestamp",
          "type": "uint256"
        },
        {
          "internalType": "uint256",
          "name": "_cancellationTimeDays",
          "type": "uint256"
        },
        {
          "internalType": "address payable",
          "name": "_escrowWallet",
          "type": "address"
        },
        {
          "internalType": "address",
          "name": "_paymentToken",
          "type": "address"
        }
      ],
      "name": "initializeJob",
      "outputs": [],
      "stateMutability": "nonpayable",
      "type": "function"
    },
    {
      "inputs": [],
      "name": "isCancelled",
      "outputs": [
        {
          "internalType": "bool",
          "name": "",
          "type": "bool"
        }
      ],
      "stateMutability": "view",
      "type": "function"
    },
    {
      "inputs": [],
      "name": "paymentToken",
      "outputs": [
        {
          "internalType": "address",
          "name": "",
          "type": "address"
        }
      ],
      "stateMutability": "view",
      "type": "function"
    },
    {
      "inputs": [
        {
          "internalType": "uint256",
          "name": "_checkpointIndex",
          "type": "uint256"
        }
      ],
      "name": "rejectCheckpoint",
      "outputs": [],
      "stateMutability": "nonpayable",
      "type": "function"
    },
    {
      "inputs": [
        {
          "internalType": "uint256",
          "name": "_checkpointIndex",
          "type": "uint256"
        },
        {
          "internalType": "string",
          "name": "_ipfsCID",
          "type": "string"
        }
      ],
      "name": "submitCheckpoint",
      "outputs": [],
      "stateMutability": "nonpayable",
      "type": "function"
    },
    {
      "inputs": [],
      "name": "totalReleased",
      "outputs": [
        {
          "internalType": "uint256",
          "name": "",
          "type": "uint256"
        }
      ],
      "stateMutability": "view",
      "type": "function"
    }
  ],
  "bytecode": "0x608060405234801561001057600080fd5b50600a601455602360155560376016556117ab8061002f6000396000f3fe6080604052600436106101355760003560e01c806392d3be79116100ab578063d0f3725f1161006f578063d0f3725f14610360578063d559462114610375578063e33b7de31461038b578063e358f97e146103a1578063e4bd930f146103c1578063eaf3d02f146103d757600080fd5b806392d3be79146102ba57806395ee1221146102da578063a6b513ee14610304578063b07c74751461031a578063b8a242521461032f57600080fd5b80633eb5241d116100fd5780633eb5241d146102065780633f8d8ff61461020e578063610c3ed51461023257806379524755146102525780637fbcc333146102725780638db9877c146102a457600080fd5b806306a4e7cb1461013a5780631fc30da01461017757806320fc4881146101995780632c2ab5ea146101c65780633013ce29146101e6575b600080fd5b34801561014657600080fd5b5060015461015a906001600160a01b031681565b6040516001600160a01b0390911681526020015b60405180910390f35b34801561018357600080fd5b50610197610192366004611299565b6103f7565b005b3480156101a557600080fd5b506101b96101b4366004611299565b6105ea565b60405161016e91906112f8565b3480156101d257600080fd5b5060005461015a906001600160a01b031681565b3480156101f257600080fd5b5060075461015a906001600160a01b031681565b610197610734565b34801561021a57600080fd5b5061022460045481565b60405190815260200161016e565b34801561023e57600080fd5b5061019761024d366004611299565b6108a2565b34801561025e57600080fd5b5061022461026d366004611299565b610b26565b34801561027e57600080fd5b50610287610b3d565b60408051931515845260208401929092529082015260600161016e565b3480156102b057600080fd5b5061022460195481565b3480156102c657600080fd5b5060065461015a906001600160a01b031681565b3480156102e657600080fd5b506018546102f49060ff1681565b604051901515815260200161016e565b34801561031057600080fd5b5061022460025481565b34801561032657600080fd5b50610197610b61565b34801561033b57600080fd5b5061034f61034a366004611299565b610cf7565b60405161016e95949392919061134c565b34801561036c57600080fd5b506102f4610dbd565b34801561038157600080fd5b5061022460055481565b34801561039757600080fd5b5061022460175481565b3480156103ad57600080fd5b506101976103bc36600461139b565b610df5565b3480156103cd57600080fd5b5061022460035481565b3480156103e357600080fd5b506101976103f236600461142c565b611028565b6000546001600160a01b0316331461042a5760405162461bcd60e51b8152600401610421906114e7565b60405180910390fd5b60185460ff161561044d5760405162461bcd60e51b81526004016104219061151e565b6003811061046d5760405162461bcd60e51b815260040161042190611548565b600881600381106104805761048061157f565b600402015460ff166104cf5760405162461bcd60e51b815260206004820152601860248201527710da1958dadc1bda5b9d081b9bdd081cdd589b5a5d1d195960421b6044820152606401610421565b600881600381106104e2576104e261157f565b6004020154610100900460ff161561053c5760405162461bcd60e51b815260206004820152601b60248201527f436865636b706f696e7420616c726561647920617070726f76656400000000006044820152606401610421565b6000600882600381106105515761055161157f565b60040201805460ff1916911515919091179055604080516020810190915260008152600882600381106105865761058661157f565b6004020160010190816105999190611620565b506000600882600381106105af576105af61157f565b6004020160020181905550807f995f4315897a99353d77613641c21c10facc2436cb5cd20c4886ab76d5ab4e0e60405160405180910390a250565b6106206040518060a001604052806000151581526020016000151581526020016060815260200160008152602001600081525090565b600382106106405760405162461bcd60e51b815260040161042190611548565b600882600381106106535761065361157f565b6040805160a08101825260049290920292909201805460ff808216151584526101009091041615156020830152600181018054929391929184019161069790611595565b80601f01602080910402602001604051908101604052809291908181526020018280546106c390611595565b80156107105780601f106106e557610100808354040283529160200191610710565b820191906000526020600020905b8154815290600101906020018083116106f357829003601f168201915b50505050508152602001600282015481526020016003820154815250509050919050565b6000546001600160a01b0316331461075e5760405162461bcd60e51b8152600401610421906114e7565b60185460ff16156107815760405162461bcd60e51b81526004016104219061151e565b6007546000906001600160a01b03161561079c57600061079e565b345b905060025481146107f15760405162461bcd60e51b815260206004820152601d60248201527f416d6f756e74206d75737420657175616c2066696e616c2070726963650000006044820152606401610421565b6006546007546040516311f9fbc960e21b81526001600160a01b039182166004820152602481018490529116906347e7ef249083906044016000604051808303818588803b15801561084257600080fd5b505af1158015610856573d6000803e3d6000fd5b50506000546040518581526001600160a01b0390911693507f543ba50a5eec5e6178218e364b1d0f396157b3c8fa278522c2cb7fd99407d474925060200190505b60405180910390a250565b6000546001600160a01b031633146108cc5760405162461bcd60e51b8152600401610421906114e7565b60185460ff16156108ef5760405162461bcd60e51b81526004016104219061151e565b6003811061090f5760405162461bcd60e51b815260040161042190611548565b600881600381106109225761092261157f565b600402015460ff166109715760405162461bcd60e51b815260206004820152601860248201527710da1958dadc1bda5b9d081b9bdd081cdd589b5a5d1d195960421b6044820152606401610421565b600881600381106109845761098461157f565b6004020154610100900460ff16156109de5760405162461bcd60e51b815260206004820152601b60248201527f436865636b706f696e7420616c726561647920617070726f76656400000000006044820152606401610421565b6001600882600381106109f3576109f361157f565b6004020180549115156101000261ff00199092169190911790554260088260038110610a2157610a2161157f565b60040201600301819055506000606460148360038110610a4357610a4361157f565b0154600254610a5291906116f6565b610a5c9190611713565b90508060176000828254610a709190611735565b9091555050600654600754600154604051638bfb07c960e01b81526001600160a01b039283166004820152908216602482015260448101849052911690638bfb07c990606401600060405180830381600087803b158015610ad057600080fd5b505af1158015610ae4573d6000803e3d6000fd5b50505050817f0b79622cb29643ae2566f50b640393bf9bfccc681972640cd61bb28c9b47665d82604051610b1a91815260200190565b60405180910390a25050565b60148160038110610b3657600080fd5b0154905081565b60185460175460025460ff90921691600090610b5a908390611748565b9050909192565b6000546001600160a01b03163314610b8b5760405162461bcd60e51b8152600401610421906114e7565b60185460ff1615610bae5760405162461bcd60e51b81526004016104219061151e565b600554610bbe90620151806116f6565b600454610bcb9190611735565b4211610c195760405162461bcd60e51b815260206004820152601c60248201527f43616e63656c6c6174696f6e206e6f7420616c6c6f77656420796574000000006044820152606401610421565b6018805460ff1916600117905542601955601754600254600091610c3c91611748565b90508015610cb8576006546007546000546040516382ad6f3560e01b81526001600160a01b0392831660048201529082166024820152604481018490529116906382ad6f3590606401600060405180830381600087803b158015610c9f57600080fd5b505af1158015610cb3573d6000803e3d6000fd5b505050505b6000546040518281526001600160a01b03909116907f802f1675de6bcae4f345ab030a16843f3d5c2556a4e27e5bfaaa38ee2c6a0bb690602001610897565b60088160038110610d0757600080fd5b60040201805460018201805460ff80841695506101009093049092169291610d2e90611595565b80601f0160208091040260200160405190810160405280929190818152602001828054610d5a90611595565b8015610da75780601f10610d7c57610100808354040283529160200191610da7565b820191906000526020600020905b815481529060010190602001808311610d8a57829003601f168201915b5050505050908060020154908060030154905085565b60185460009060ff1615610dd15750600090565b600554610de190620151806116f6565b600454610dee9190611735565b4211905090565b6001600160a01b038716610e445760405162461bcd60e51b8152602060048201526016602482015275496e76616c696420636c69656e74206164647265737360501b6044820152606401610421565b6001600160a01b038616610e9a5760405162461bcd60e51b815260206004820152601a60248201527f496e76616c696420667265656c616e63657220616464726573730000000000006044820152606401610421565b60008511610eea5760405162461bcd60e51b815260206004820152601c60248201527f5072696365206d7573742062652067726561746572207468616e2030000000006044820152606401610421565b428411610f315760405162461bcd60e51b8152602060048201526015602482015274496e76616c69642064656c6976657279206461746560581b6044820152606401610421565b60008311610f8c5760405162461bcd60e51b815260206004820152602260248201527f43616e63656c6c6174696f6e2074696d65206d75737420626520706f73697469604482015261766560f01b6064820152608401610421565b600080546001600160a01b03199081166001600160a01b038a81169182179093556001805483168a85169081179091556002899055426003556004889055600587905560068054841687861617905560078054909316938516939093179091556040518781527f40ba18e3bd4760e23a2e4fc3eeab12f8ff7295d85c430b7196f38a5cc413000a9060200160405180910390a350505050505050565b6001546001600160a01b031633146110825760405162461bcd60e51b815260206004820152601d60248201527f4f6e6c7920667265656c616e6365722063616e2063616c6c20746869730000006044820152606401610421565b60185460ff16156110a55760405162461bcd60e51b81526004016104219061151e565b600382106110c55760405162461bcd60e51b815260040161042190611548565b600882600381106110d8576110d861157f565b600402015460ff161561112d5760405162461bcd60e51b815260206004820152601c60248201527f436865636b706f696e7420616c726561647920636f6d706c65746564000000006044820152606401610421565b60008151116111725760405162461bcd60e51b815260206004820152601160248201527012541194c810d251081c995c5d5a5c9959607a1b6044820152606401610421565b81156111fa576008611185600184611748565b600381106111955761119561157f565b6004020154610100900460ff166111fa5760405162461bcd60e51b8152602060048201526024808201527f50726576696f757320636865636b706f696e74206d75737420626520617070726044820152631bdd995960e21b6064820152608401610421565b60016008836003811061120f5761120f61157f565b60040201805460ff191691151591909117905580600883600381106112365761123661157f565b6004020160010190816112499190611620565b50426008836003811061125e5761125e61157f565b6004020160020181905550817f7da035613cb827a31734f0c54e1d567cbead01a9f0424269d34e3dd88aa43aab82604051610b1a919061175b565b6000602082840312156112ab57600080fd5b5035919050565b6000815180845260005b818110156112d8576020818501810151868301820152016112bc565b506000602082860101526020601f19601f83011685010191505092915050565b602081528151151560208201526020820151151560408201526000604083015160a0606084015261132c60c08401826112b2565b905060608401516080840152608084015160a08401528091505092915050565b8515158152841515602082015260a06040820152600061136f60a08301866112b2565b606083019490945250608001529392505050565b6001600160a01b038116811461139857600080fd5b50565b600080600080600080600060e0888a0312156113b657600080fd5b87356113c181611383565b965060208801356113d181611383565b955060408801359450606088013593506080880135925060a08801356113f681611383565b915060c088013561140681611383565b8091505092959891949750929550565b634e487b7160e01b600052604160045260246000fd5b6000806040838503121561143f57600080fd5b82359150602083013567ffffffffffffffff8082111561145e57600080fd5b818501915085601f83011261147257600080fd5b81358181111561148457611484611416565b604051601f8201601f19908116603f011681019083821181831017156114ac576114ac611416565b816040528281528860208487010111156114c557600080fd5b8260208601602083013760006020848301015280955050505050509250929050565b60208082526019908201527f4f6e6c7920636c69656e742063616e2063616c6c207468697300000000000000604082015260600190565b60208082526010908201526f129bd8881a5cc818d85b98d95b1b195960821b604082015260600190565b60208082526018908201527f496e76616c696420636865636b706f696e7420696e6465780000000000000000604082015260600190565b634e487b7160e01b600052603260045260246000fd5b600181811c908216806115a957607f821691505b6020821081036115c957634e487b7160e01b600052602260045260246000fd5b50919050565b601f82111561161b576000816000526020600020601f850160051c810160208610156115f85750805b601f850160051c820191505b8181101561161757828155600101611604565b5050505b505050565b815167ffffffffffffffff81111561163a5761163a611416565b61164e816116488454611595565b846115cf565b602080601f831160018114611683576000841561166b5750858301515b600019600386901b1c1916600185901b178555611617565b600085815260208120601f198616915b828110156116b257888601518255948401946001909101908401611693565b50858210156116d05787850151600019600388901b60f8161c191681555b5050505050600190811b01905550565b634e487b7160e01b600052601160045260246000fd5b808202811582820484141761170d5761170d6116e0565b92915050565b60008261173057634e487b7160e01b600052601260045260246000fd5b500490565b8082018082111561170d5761170d6116e0565b8181038181111561170d5761170d6116e0565b60208152600061176e60208301846112b2565b939250505056fea2646970667358221220c469afb7c7ab631341d751fc934541ccb62d08f2d29b0ea362562c9fa51cfff764736f6c63430008180033",
  "linkReferences": {},
  "deployedLinkReferences": {}
}